:100000000C94B5000C94D2000C94D2000C94D20045
:100010000C94D2000C94D2000C94D2000C94D20018
:100020000C94D2000C94D2000C94D2000C94D20008
:100030000C94D2000C94D2000C94D2000C94D200F8
:100040000C9438040C94D2000C94D2000C94D2007E
:100050000C94D2000C94D2000C94D2000C94D200D8
:100060000C94D2000C94D2006E616E00696E660032
:1000700000407A10F35A00A0724E18090010A5D45F
:10008000E80000E87648170000E40B54020000CABC
:100090009A3B000000E1F505000080969800000002
:1000A00040420F000000A086010000001027000061
:1000B0000000E803000000006400000000000A00E7
:1000C000000000000100000000002C76D888DC67EA
:1000D0004F0823DFC1DFAE59E1B1B796E5E3E45342
:1000E000C63AE651997696E8E6C28426EB898C9B5F
:1000F00062ED407C6FFCEFBC9C9F40F2BAA56FA5FF
:10010000F490055A2AF75C936B6CF9676DC11BFC80
:10011000E0E40D47FEF520E6B500D0ED902E03009B
:10012000943577050080841E080000204E0A0000E8
:1001300000C80C333333330F986E12831141EF8DA7
:100140002114893BE65516CFFEE6DB18D1844B38E7
:100150001BF77C1D901DA4BBE424203284725E2218
:100160008100C9F124ECA1E53D2711241FBECFEF8A
:10017000D8E0DEBFCDBF12E0A0E0B1E0EEE4F7E1F1
:1001800002C005900D92AE38B107D9F723E0AEE872
:10019000B2E001C01D92A533B207E1F70E941C092D
:1001A0000C94A50B0C940000E0E8F0E08081826ADA
:1001B0008083E1E8F0E080818A618083109285008D
:1001C0001092840080E49CE99093870080938600DD
:1001D0008AEE9BE0909389008093880090938B0037
:1001E00080938A0008959C01263A8FEF380759F5CD
:1001F00086E495E090938900809388008FE39CE9E2
:100200000197F1F700C00000032E000C440B550BC2
:10021000265A3F4F4F4F5F4FA8E4BDE00E94590957
:1002200024EB30E040E050E00E9437092A5B3A4F6F
:1002300030938900209388008FE39CE90197F1F7C0
:1002400000C0000008952A353105F1F68EE892E1EC
:10025000D1CF9C01263A8FEF380759F586E495E017
:1002600090938B0080938A008FE39CE90197F1F7CC
:1002700000C00000032E000C440B550B265A3F4FC4
:100280004F4F5F4FA8E4BDE00E94590924EB30E0D6
:1002900040E050E00E9437092A5B3A4F30938B00D0
:1002A00020938A008FE39CE90197F1F700C00000DA
:1002B00008952A353105F1F68EE892E1D1CF94B157
:1002C00021E030E001C0220F8A95EAF7922B94B921
:1002D00008954F925F926F927F92AF92BF92CF92AA
:1002E000DF92EF92FF920F931F93CF93DF93CDB7DF
:1002F000DEB729013A019B01AC01241935094609F1
:10030000570989899A89AB89BC89BC01CD016A19D1
:100310007B098C099D090E942709A80197012419CE
:100320003509460957090E943709B9016A0D7B1D35
:10033000072E000C880B990BDF91CF911F910F9125
:10034000FF90EF90DF90CF90BF90AF907F906F9035
:100350005F904F9008950E944205429880E80E9465
:100360004B058FEF0E944B058093A702429A2FEF17
:1003700083ED90E3215080409040E1F700C0000001
:100380008091A7028C3799F480E091E00E941B0BCA
:100390008091A7021F928F938FE191E09F938F939B
:1003A0000E94050B0F900F900F900F9008958FE211
:1003B00091E00E941B0B8091A7021F928F9383E50F
:1003C00091E0ECCF429881E80E944B058FEF0E94AC
:1003D0004B058093970282E80E944B058FEF0E94A5
:1003E0004B058093A402429A429883E80E944B05F1
:1003F0008FEF0E944B0580939A0284E80E944B0580
:100400008FEF0E944B0580939C02429A429885E8A8
:100410000E944B058FEF0E944B058093A10286E856
:100420000E944B058FEF0E944B0580939B02429ADE
:100430008091970290E0982F88272091A402822B28
:100440009093A3028093A20280919A0290E0982F49
:10045000882720919C02822B909399028093980286
:100460008091A10290E0982F882720919B02822BF7
:100470009093A9028093A8024091A8025091A902EA
:1004800020919802309199028091A2029091A3024A
:100490005F934F933F932F939F938F9381E891E0C6
:1004A0009F938F930E94050B2FEF81EE94E02150D4
:1004B00080409040E1F700C000008DB79EB70896DD
:1004C0000FB6F8949EBF0FBE8DBF089542988CE87A
:1004D0000E944B058FEF0E944B0590E09093A6027F
:1004E0008093A502429A6091A5027091A602072E00
:1004F000000C880B990B0E94AC0960939D027093CD
:100500009E0280939F029093A00280919D02909101
:100510009E02A0919F02B091A002BF93AF939F93C0
:100520008F938FEA91E09F938F930E94050B2FEF9B
:1005300081EE94E0215080409040E1F700C000003F
:100540000F900F900F900F900F900F9008950E94B2
:1005500042055B988DE80E944B058FEF0E944B058A
:100560008093A7025B9A2FEF83ED90E321508040A8
:100570009040E1F700C000005B988EE00E944B05C0
:1005800082E00E944B055B9A2FEF83ED90E32150B0
:1005900080409040E1F700C000008091A7028336C0
:1005A00099F489EC91E00E941B0B8091A7021F92A5
:1005B0008F938FE191E09F938F930E94050B0F9093
:1005C0000F900F900F9008958FE291E00E941B0B07
:1005D0008091A7021F928F9389EE91E0ECCF5B98F8
:1005E00081E80E944B058FEF0E944B058093B90272
:1005F00082E80E944B058FEF0E944B058093AB026F
:100600005B9A5B9883E80E944B058FEF0E944B0535
:100610008093B50284E80E944B058FEF0E944B0542
:100620008093B4025B9A5B9885E80E944B058FEF3C
:100630000E944B058093C20286E80E944B058FEF13
:100640000E944B058093B8025B9A8091B90290E0BA
:10065000982F88272091AB02822B9093B30280932E
:10066000B2028091B50290E0982F88272091B402C1
:10067000822B9093AF028093AE028091C20290E0F1
:10068000982F88272091B802822B9093BE028093E6
:10069000BD024091BD025091BE022091AE02309148
:1006A000AF028091B2029091B3025F934F933F9358
:1006B0002F939F938F9386E192E09F938F930E9455
:1006C000050B2FEF81EE94E0215080409040E1F740
:1006D00000C000008DB79EB708960FB6F8949EBF75
:1006E0000FBE8DBF08955B9883EB0E944B058FEF83
:1006F0000E944B058093B00284EB0E944B058FEF64
:100700000E944B058093C1025B9A5B9885EB0E9427
:100710004B058FEF0E944B058093BA0286EB0E9437
:100720004B058FEF0E944B058093BA025B9A5B9852
:1007300087EB0E944B058FEF0E944B058093B1021F
:1007400088EB0E944B058FEF0E944B058093AD0212
:100750005B9A8091B00290E0982F88272091C10287
:10076000822B9093C0028093BF028091BA0290E0E6
:10077000982F88272091AC02822B9093B702809308
:10078000B6028091B10290E0982F88272091AD02A7
:10079000822B9093BC028093BB024091BB0250918C
:1007A000BC022091B6023091B7028091BF029091B5
:1007B000C0025F934F933F932F939F938F9387E450
:1007C00092E09F938F930E94050B2FEF81EE94E0B0
:1007D000215080409040E1F700C000008DB79EB7E7
:1007E00008960FB6F8949EBF0FBE8DBF08955B9814
:1007F00081ED0E944B058FEF0E944B0590E0909396
:10080000A6028093A5025B9A6091A5027091A60250
:10081000072E000C880B990B0E94AC0960939D0277
:1008200070939E0280939F029093A00280919D02FC
:1008300090919E02A0919F02B091A002BF93AF93AE
:100840009F938F9382E792E09F938F930E94050B73
:100850002FEF81EE94E0215080409040E1F700C0FE
:1008600000000F900F900F900F900F900F90089531
:100870001F920F920FB60F9211248F939F93AF93F5
:10088000BF9380918E0290918F02A0919002B091BF
:1008900091028093C7029093C802A093C902B093BB
:1008A000CA028091960290E0A0E0B0E08093C3027B
:1008B0009093C402A093C502B093C6028091C70270
:1008C0009091C802A091C902B091CA020196A11DDF
:1008D000B11D8093C7029093C802A093C902B09340
:1008E000CA028091C3029091C402A091C502B09146
:1008F000C6020396A11DB11D8093C3029093C4024A
:10090000A093C502B093C6028091C3029091C40225
:10091000A091C502B091C6028D379105A105B10520
:1009200038F18091C3029091C402A091C502B091A8
:10093000C6028D579109A109B1098093C302909312
:10094000C402A093C502B093C6028091C7029091E1
:10095000C802A091C902B091CA020196A11DB11DA1
:100960008093C7029093C802A093C902B093CA02B1
:100970008091C3029091C402A091C502B091C602B9
:10098000809396028091C7029091C802A091C902FB
:10099000B091CA0280938E0290938F02A09390022E
:1009A000B09391028091920290919302A09194024F
:1009B000B09195020196A11DB11D80939202909372
:1009C0009302A0939402B0939502BF91AF919F912F
:1009D0008F910F900FBE0F901F901895789484B54B
:1009E000836084BD85B5836085BDEEE6F0E08081DF
:1009F0008160808308953FB7F8948091920290912E
:100A00009302A0919402B091950226B5A89B05C0CF
:100A10002F3F19F00196A11DB11D3FBFBA2FA92F7D
:100A2000982F8827BC01CD01620F711D811D911D7A
:100A300042E0660F771F881F991F4A95D1F70895E6
:100A40009093C5008093C40088E18093C10086E044
:100A50008093C20008959091C00095FFFCCF8093D1
:100A6000C60008958091C00087FFFCCF8091C6002A
:100A700008959091C00095FFFCCF8093C60080E060
:100A800090E0089584B18C6284B92498429A5B9A6C
:100A90008CE58CBD08958EBD0DB407FEFDCF8EB5DF
:100AA0008093AA028EB5089587B1876087B90895AB
:100AB000419A2FEF89E698E1215080409040E1F77C
:100AC00000C0000041982FEF84E39CE0215080405B
:100AD0009040E1F700C000000895429A2FEF89E6A8
:100AE00098E1215080409040E1F700C0000042981A
:100AF0002FEF84E39CE0215080409040E1F700C05C
:100B000000000895409A2FEF89E698E12150804037
:100B10009040E1F700C0000040982FEF84E39CE094
:100B2000215080409040E1F700C000000895A0E10E
:100B3000B0E0EDE9F5E00C9464097C011B016A0169
:100B4000FC0117821682838181FF6DC39E012F5F96
:100B50003F4F5901F7019381F10193FD859193FF77
:100B600081911F01882309F4CCC2853239F493FDA9
:100B7000859193FF81911F01853239F4B70190E08F
:100B80000E94D50A36016301E5CF512C912C00E07B
:100B9000003238F48B3209F190F48032F9F083326C
:100BA00009F107FD34C020ED280F2A3020F506FF9B
:100BB0001BC0FAE05F9E200D1124522E05C08D321D
:100BC00079F0803371F70160F10193FD859193FF16
:100BD00081911F018111DCCF1AC002600460F4CF43
:100BE0000860F2CF0061F0CF3AE0939E200D11240F
:100BF000922E0062E9CF8E3221F406FD82C200649B
:100C0000E3CF8C3611F40068DFCF8836E9F29BEB36
:100C1000980F9330D8F50061805E06FD02C046E073
:100C2000542E102F1F738536C1F5106417FF3EC078
:100C30008BE3851508F442C091E0950D9C8727E071
:100C4000360134E0630E711CF6016081718182818E
:100C500093810C85A5010E94E7096C01F981FE874B
:100C6000F0FF02C0F3FF30C011FD30C0012F04704F
:100C700012FD00E22E852C70422E09F464C0011191
:100C8000D5C2F3E0F91520F1412C36C09BE9980F4D
:100C9000933008F076C10F7EC0CF863611F410680D
:100CA000C5CF552009F4C2CF5A94C0CFE7E0E5156F
:100CB00048F427E037E0532E1C86C2CF27E0FCE340
:100CC000FC87BECF252DF8CF0DE2D4CF0BE2D2CFDB
:100CD00083E0492C481A13FD08C0B70180E290E078
:100CE0000E94D50A4A944110F8CF002329F0B70199
:100CF000802F90E00E94D50A3E8533FF15C098E60C
:100D0000C92E90E0D92E1071F6018491811111C085
:100D1000442009F438CFB70180E290E00E94D50A60
:100D20004A94F6CF84E0D5CF8CE6C82E80E0D82E4A
:100D3000EACF11118052B70190E00E94D50A8FEFDF
:100D4000C81AD80AE1CF17FF7CC08C858C0DFE85B0
:100D5000F4FF04C09A81913309F4815018160CF005
:100D600093C08C87893010F028E02C8717FF91C042
:100D70001C141D040CF090C0C601019601110196CF
:100D8000552031F0252D30E02F5F3F4F820F931F0C
:100D9000292D30E08217930714F4492C481A812F2B
:100DA000897011F441107BC0002329F0B701802F16
:100DB00090E00E94D50A13FD02C0411077C017FFD2
:100DC00090C04601D7FE02C0812C912CC601881923
:100DD0009909F501E80FF91FF88BEF8796018C85CB
:100DE000281B31093D872C87052D10E011950195B1
:100DF00011099FEF8916990629F4B7018EE290E058
:100E00000E94D50AC814D9040CF457C0EC85FD859E
:100E1000E815F9050CF051C0EF85F8898181F1E002
:100E20008F1A91082F8538892F5F3F4F388B2F8776
:100E3000801691060CF443C0B70190E00E94D50AD9
:100E4000D8CF16FD93CFE52DF0E0EC15FD0534F07D
:100E50003CEFC3163FEFD3060CF010683296EA0D54
:100E6000FB1D552019F08291803361F017FF7ECF72
:100E700081E0850D8C87852D90E0C816D9063CF45D
:100E80005C1874CF5A94EDCF91E09C876FCF512CB2
:100E90006DCF85E090E072CF81E090E06FCFB70139
:100EA00080E290E00E94D50A4A947CCFB70180E3AB
:100EB00090E00E94D50A4A9480CF80E3B0CFC81456
:100EC000D90441F49A81963350F4953319F43E8550
:100ED00034FF05C0B70190E00E94D50A19CF81E325
:100EE000F9CF8A81813319F09E859F7E9E87B70155
:100EF00090E00E94D50A511024C014FD38C085E648
:100F000090E0B7010E94D50AD7FC06C0C114D104F5
:100F100089F5EE85E4FF2EC0D194C194D1088DE20D
:100F2000B70190E00E94D50A80E32AE0C216D104FE
:100F30001CF5B70190E00E94D50AB701C601C09622
:100F4000CBCFB7018EE290E00E94D50A5394539420
:100F500082E001E0080FF501E80FF11D8081B70183
:100F600090E00E94D50A802F5012F3CFC6CF85E4BF
:100F700090E0C7CF8BE2D4CF8F5FFAE0CF1AD108D1
:100F8000D4CF8336C1F0833709F443C0833509F0E9
:100F90005EC03601F2E06F0E711CF601C080D18098
:100FA00006FF4BC0652D70E0C6010E94BF0A9D87F9
:100FB0008C8700680DC0360132E0630E711CF601AB
:100FC0008081898321E030E03D872C8765010F77A0
:100FD00003FD07C0892D90E02C853D852817390732
:100FE00078F1492CEC85FD85EF2B09F491CEF601C3
:100FF00007FD859107FF81916F01B70190E00E9485
:10100000D50A41104A948C859D8501979D878C87D0
:10101000E9CF360132E0630E711CF601C080D18049
:1010200006FF08C0652D70E0C6010E94CA0A9D87B0
:101030008C87CDCF6FEF7FEFF7CF6FEF7FEFB4CF20
:10104000B70180E290E00E94D50A9A94C3CF84361B
:1010500011F08936C1F5360107FF2AC0F4E06F0EA2
:10106000711CF6016081718182819381102F1F763E
:1010700097FF08C090958095709561957F4F8F4F31
:101080009F4F10682AE030E0A5010E94470BC82E50
:10109000CA1816FF59C0012F0E7FC51408F090C062
:1010A00014FF04C012FD02C0012F0E7ED52C4EC0CD
:1010B000F2E06F0E711CF60160817181072E000C49
:1010C000880B990BD3CF102F8537A9F41F7E2AE008
:1010D00030E0360117FF2FC0F4E06F0E711CF601EF
:1010E0006081718182819381A5010E94470BC82E86
:1010F000CA181F77CECF197F8F36D1F048F48835C4
:1011000091F0F701868197816096E2E10C94800965
:10111000803739F08837A9F714FD146020E130E0FA
:10112000D8CF1061F9CF04FD166020E132E0D1CFB5
:1011300028E030E0CECFF2E06F0E711CF601608146
:10114000718180E090E0D0CFDC2C012F04FF41C002
:10115000FE01EC0DF11D80818033A1F5097EF02F99
:10116000F8704F2E03FD43C000FF3DC05C2CD91426
:1011700010F4590C5D1804FF42C0B70180E390E001
:101180000E94D50A02FF07C001FD36C088E790E043
:10119000B7010E94D50AC51408F43EC0CA940C2DAC
:1011A00010E00F5F1F4F0A0D1B1DF80182918F0188
:1011B000B70190E00E94D50A0A151B05B1F7A8CD2A
:1011C000DC2CC4CF02FD02C0D394C9CFD394D394F6
:1011D000C6CF802F867819F2F7CFB70180E290E072
:1011E0000E94D50AD394D914C0F3412CC4CFD9148A
:1011F000E0F7492C4D18BFCF88E590E0C9CF802F8C
:10120000867849F201FF06C08BE207FD8DE2B70147
:1012100090E0BFCF80E2F9CFB70180E390E00E9479
:10122000D50A5A94B8CF8FEF9FEF6ECF24E02915DF
:1012300008F478CD412C5BCD0E94D40081E090E091
:101240000E945F0180E090E00E94F300FBCFDB0191
:101250008F939F930E945909BF91AF91A29F800DD8
:10126000911DA39F900DB29F900D11240895A1E2AE
:101270001A2EAA1BBB1BFD010DC0AA1FBB1FEE1F10
:10128000FF1FA217B307E407F50720F0A21BB30B5B
:10129000E40BF50B661F771F881F991F1A9469F7D7
:1012A00060957095809590959B01AC01BD01CF0133
:1012B00008950E949B09A59F900DB49F900DA49F37
:1012C000800D911D112408952F923F924F925F92AD
:1012D0006F927F928F929F92AF92BF92CF92DF9246
:1012E000EF92FF920F931F93CF93DF93CDB7DEB7AB
:1012F000CA1BDB0B0FB6F894DEBF0FBECDBF09943F
:101300002A88398848885F846E847D848C849B8495
:10131000AA84B984C884DF80EE80FD800C811B81A3
:10132000AA81B981CE0FD11D0FB6F894DEBF0FBED2
:10133000CDBFED010895A29FB001B39FC001A39F4F
:10134000700D811D1124911DB29F700D811D1124FE
:10135000911D0895E89409C097FB3EF490958095FF
:10136000709561957F4F8F4F9F4F9923A9F0F92F6B
:1013700096E9BB279395F695879577956795B795E9
:10138000F111F8CFFAF4BB0F11F460FF1BC06F5FCF
:101390007F4F8F4F9F4F16C0882311F096E911C0E1
:1013A000772321F09EE8872F762F05C0662371F002
:1013B00096E8862F70E060E02AF09A95660F771F16
:1013C000881FDAF7880F9695879597F90895283042
:1013D00008F027E03327DA01990F311D87FD91606E
:1013E00000966105710539F432602E5F3D9330E35C
:1013F0002A95E1F708959F3F30F080387105610527
:1014000009F03C5F3C5F3D93913008F08068911D8E
:10141000DF93CF931F930F93FF92EF92192F987F33
:101420009695E92F96959695E90FFF27E653FF4F7E
:1014300099273327EE24FF24A701E701059008949C
:10144000079428F4360FE71EF81E491F511D660F3A
:10145000771F881F991F0694A1F70590079428F419
:10146000E70EF81E491F561FC11D770F881F991FD1
:10147000661F0694A1F70590079428F4F80E491FFB
:10148000561FC71FD11D880F991F661F771F06940F
:10149000A1F70590079420F4490F561FC71FD81FC6
:1014A000990F661F771F881F0694A9F784911095DE
:1014B000177041F0D695C79557954795F794E794DF
:1014C0001A95C1F7E0E7F0E0689415901591359111
:1014D0006591959105907FE27395E118F10A430BB0
:1014E000560BC90BD009C0F7E10CF11E431F561F64
:1014F000C91FD01D7EF4703311F48A95E6CFE894AD
:10150000015030F0080F0AF40027021708F4202FCA
:101510002395022F7A3328F079E37D932A95E9F712
:1015200010C07D932A9589F606949795679537950F
:1015300017951794E118F10A430B560BC90BD00904
:1015400098F023957E9173957A3308F070E37C933D
:101550002013B8F77E9170617D9330F0839571E32D
:101560007D9370E32A95E1F71124EF90FF900F919E
:101570001F91CF91DF91992787FD90950895FC01E8
:101580000590615070400110D8F7809590958E0FAE
:101590009F1F0895FC016150704001900110D8F721
:1015A000809590958E0F9F1F08950F931F93CF9353
:1015B000DF93182F092FEB018B8181FD09C01FEFED
:1015C0000FEF812F902FDF91CF911F910F910895F1
:1015D00082FF14C02E813F818C819D81281739079D
:1015E0003CF4E881F981CF010196998388831083C7
:1015F0008E819F8101969F838E83E3CFE885F98555
:10160000812F0995892BA1F3DACFA0E0B0E0EBE0C0
:10161000FBE00C947409AE014B5F5F4FFA016191DE
:101620007191AF0180913103909132030E9497052F
:10163000E2E00C9490090F931F93CF93DF93E09116
:101640003103F0913203238121FF13C0EC0100E04C
:1016500010E089916091310370913203DB0118969B
:10166000ED91FC91199781110CC08AE00995892BA5
:1016700011F00FEF1FEFC801DF91CF911F910F9174
:1016800008950995892B29F30FEF1FEFE2CFFA0197
:10169000AA27283051F1203181F1E8946F936E7FB1
:1016A0006E5F7F4F8F4F9F4FAF4FB1E03ED0B4E0A2
:1016B0003CD0670F781F891F9A1FA11D680F791FE3
:1016C0008A1F911DA11D6A0F711D811D911DA11DF4
:1016D00020D009F468943F912AE0269F1124301904
:1016E000305D3193DEF6CF010895462F4770405D9F
:1016F0004193B3E00FD0C9F7F6CF462F4F70405D4E
:101700004A3318F0495D31FD4052419302D0A9F7A8
:10171000EACFB4E0A6959795879577956795BA95A2
:10172000C9F700976105710508959B01AC010A2E68
:1017300006945795479537952795BA95C9F7620F3F
:0E174000731F841F951FA01D0895F894FFCFFE
:10174E0046584153323130303220697320776F72F0
:10175E006B696E672070726F7065726C79210057BD
:10176E00484F5F414D5F492069732025640A00533D
:10177E006F6D657468696E672069732077726F6E1E
:10178E00672C20636865636B20776972696E6720CA
:10179E003A280057484F5F414D5F49206973202515
:1017AE0064206275742073686F756C6420626520A6
:1017BE003132342E2054727920616761696E210AAC
:1017CE00005261772078206779726F3A2025640A7B
:1017DE005261772079206779726F3A2025640A5218
:1017EE0061772079206779726F3A2025640A00525A
:1017FE006177206779726F2074656D706174757290
:10180E00653A20252E31660A0046584F5338373038
:10181E0030435120697320776F726B696E67207049
:10182E00726F7065726C79210057484F5F414D5F42
:10183E0049206973202564206275742073686F7562
:10184E006C642062652039392E20547279206167CC
:10185E0061696E210A0052617720782061636365A9
:10186E006C3A2025640A52617720792061636365A2
:10187E006C3A2025640A526177207A206163636591
:10188E006C3A2025640A005261772078206D6167DA
:10189E003A2025640A5261772079206D61673A20DB
:1018AE0025640A526177207A206D61673A2025649B
:1018BE000A005261772046584F5338373030435123
:0E18CE002054656D703A20252E31660A000008
:00000001FF
