:100000000C94B5000C94D2000C94D2000C94D20045
:100010000C94D2000C94D2000C94D2000C94D20018
:100020000C94D2000C94D2000C94D2000C94F603E1
:100030000C94D2000C94D2000C94D2000C94D200F8
:100040000C94D2000C94D2000C94D2000C94D200E8
:100050000C94D2000C94D2000C94D2000C94D200D8
:100060000C94D2000C94D2006E616E00696E660032
:1000700000407A10F35A00A0724E18090010A5D45F
:10008000E80000E87648170000E40B54020000CABC
:100090009A3B000000E1F505000080969800000002
:1000A00040420F000000A086010000001027000061
:1000B0000000E803000000006400000000000A00E7
:1000C000000000000100000000002C76D888DC67EA
:1000D0004F0823DFC1DFAE59E1B1B796E5E3E45342
:1000E000C63AE651997696E8E6C28426EB898C9B5F
:1000F00062ED407C6FFCEFBC9C9F40F2BAA56FA5FF
:10010000F490055A2AF75C936B6CF9676DC11BFC80
:10011000E0E40D47FEF520E6B500D0ED902E03009B
:10012000943577050080841E080000204E0A0000E8
:1001300000C80C333333330F986E12831141EF8DA7
:100140002114893BE65516CFFEE6DB18D1844B38E7
:100150001BF77C1D901DA4BBE424203284725E2218
:100160008100C9F124ECA1E53D2711241FBECFEF8A
:10017000D8E0DEBFCDBF11E0A0E0B1E0ECE7F8E1F0
:1001800002C005900D92A836B107D9F722E0A8E683
:10019000B1E001C01D92AF34B207E1F70E9426081A
:1001A0000C943C0C0C9400004F925F926F927F92E3
:1001B000AF92BF92CF92DF92EF92FF920F931F9375
:1001C000CF93DF93CDB7DEB729013A019B01AC0194
:1001D000241935094609570989899A89AB89BC8947
:1001E000BC01CD016A197B098C099D090E94830815
:1001F000A801970124193509460957090E94930857
:10020000A20EB31EB501BB0C880B990BDF91CF91E9
:100210001F910F91FF90EF90DF90CF90BF90AF9024
:100220007F906F905F904F900895E0E8F0E08081BC
:10023000826A8083E1E8F0E080818A6180831092A5
:1002400085001092840080E49CE99093870080935D
:1002500086008AEE9BE090938900809388009093BB
:100260008B0080938A0008959C01263A8FEF38070F
:1002700019F486E495E005C02A35310561F48EE86D
:1002800092E190938900809388008FE39CE9019725
:10029000F1F700C00000C901330FAA0BBB0B9C0192
:1002A000AD01265A3F4F4F4F5F4FA8E4BDE00E947B
:1002B000B50824EB30E040E050E00E9493082A5B50
:1002C0003A4F30938900209388008FE39CE901978F
:1002D000F1F700C0000008959C01263A8FEF38071F
:1002E00019F486E495E005C02A35310561F48EE8FD
:1002F00092E190938B0080938A008FE39CE90197B1
:10030000F1F700C00000C901330FAA0BBB0B9C0121
:10031000AD01265A3F4F4F4F5F4FA8E4BDE00E940A
:10032000B50824EB30E040E050E00E9493082A5BDF
:100330003A4F30938B0020938A008FE39CE901971A
:10034000F1F700C00000089594B121E030E001C051
:10035000220F8A95EAF7292B24B908950E94600498
:100360002A9882E20E946A0480EA0E946A042A9A19
:100370002FEF83ED90E3215080409040E1F700C0E3
:100380000000299880E10E946A0481E40E946A04C6
:10039000299A2FEF83ED90E3215080409040E1F7C0
:1003A00000C00000299883EA0E946A0480E20E944B
:1003B0006A04299A2FEF83ED90E32150804090400A
:1003C000E1F700C00000299881E20E946A0480E8F9
:1003D0000E946A04299A2FEF83ED90E32150804018
:1003E0009040E1F700C0000029988FE80E946A045D
:1003F0008FEF0E946A0480933F02299A2FEF83EDCA
:1004000090E3215080409040E1F700C000002A981E
:100410008FE80E946A048FEF0E946A0480939D0116
:100420002A9A2FEF83ED90E3215080409040E1F72E
:1004300000C0000080913F02883639F480919D0110
:100440008D3319F489E291E002C083E491E00C94C9
:10045000AE0BCF93DF93EC01299889EA0E946A04DE
:100460008FEF0E946A048093AB0188EC0E946A04BB
:100470008FEF0E946A0480936801299A29988BEA79
:100480000E946A048FEF0E946A0480938D018AEAB9
:100490000E946A048FEF0E946A0480938C01299A5B
:1004A00029988DEA0E946A048FEF0E946A04809363
:1004B00044028CEA0E946A048FEF0E946A048093CF
:1004C0009C01299A8091AB0190E0982F8827209178
:1004D0006801822B90938B0180938A0180918D011A
:1004E00090E0982F882720918C01822B90936C01AB
:1004F00080936B018091440290E0982F882720918F
:100500009C01822B909322028093210260918A01A8
:1005100070918B01072E000C880B990B0E947509B6
:1005200023E23BED49E75DE30E94010A2FE632E159
:1005300043E85AE30E94010A60931D0270931E0271
:1005400080931F029093200260916B0170916C0167
:10055000072E000C880B990B0E94750923E23BEDD6
:1005600049E75DE30E94010A2FE632E143E85AE3DE
:100570000E94010A60932302709324028093250253
:10058000909326026091210270912202072E000CA6
:10059000880B990B0E94750923E23BED49E75DE367
:1005A0000E94010A2FE632E143E85AE30E94010A61
:1005B00060932702709328028093290290932A0265
:1005C00080911D0290911E02A0911F02B091200205
:1005D000EEE8F1E080839183A283B38380912302CC
:1005E00090912402A0912502B091260284839583E4
:1005F000A683B7838091270290912802A0912902B7
:10060000B0912A0280879187A287B3878CE0DE01B0
:1006100001900D928A95E1F7CE01DF91CF91089577
:100620000F931F93CF93DF938C01299889E90E9440
:100630006A048FEF0E946A048093790188E90E941E
:100640006A048FEF0E946A0480933B02299A2998DA
:100650008BE90E946A048FEF0E946A048093AC01C8
:100660008AE90E946A048FEF0E946A048093140250
:10067000299A29988DE90E946A048FEF0E946A04E2
:1006800080931A028CE90E946A048FEF0E946A0428
:100690008093AE01299A8091790190E0982F882764
:1006A00020913B02822B90933A02809339028091F1
:1006B000AC0190E0982F882720911402822B909310
:1006C00088018093870180911A0290E0982F8827F3
:1006D0002091AE01822B909342028093410260915F
:1006E000390270913A02072E000C880B990B0E9478
:1006F000750920E030E04CE051E40E94010A2FE649
:1007000032E143E85AE30E94010ACDE6D1E0688372
:1007100079838A839B836091870170918801072E7A
:10072000000C880B990B0E94750920E030E04CE02A
:1007300051E40E94010A2FE632E143E85AE30E94A5
:10074000010A6C837D838E839F8360914102709147
:100750004202072E000C880B990B0E94750920E0BD
:1007600030E04CE051E40E94010A2FE632E143E818
:100770005AE30E94010A688779878A879B87688184
:1007800079818A819B8120E030E040E950E40E9439
:100790000609688379838A839B836C817D818E813E
:1007A0009F812DEC3CEC4CE050E40E9407096C83E7
:1007B0007D838E839F83688579858A859B8523E3E6
:1007C00033E343ED50E40E940609688779878A87FE
:1007D0009B878CE0FE01D80101900D928A95E1F78C
:1007E000C801DF91CF911F910F9108951F920F9231
:1007F0000FB60F9211248F939F93AF93BF93809165
:10080000450290914602A0914702B091480201969C
:10081000A11DB11D8093450290934602A09347020B
:10082000B0934802BF91AF919F918F910F900FBEEF
:100830000F901F90189520E43FE140E050E00E94A7
:100840009308E1E8F0E080818A608083EFE6F0E0E1
:10085000808182608083BB27A52F942F832F809374
:100860008900209388000895F89460914502709162
:10087000460280914702909148027894089590939F
:10088000C5008093C40088E18093C10086E0809316
:10089000C2000895CF93C82F8A3019F48DE00E94CA
:1008A0004A048091C00085FFFCCFC093C600CF9161
:1008B00008958091C00087FFFCCF8091C600089505
:1008C00084B18E6284B9249885B1866085B98CE53F
:1008D0008CBD08958EBD0DB407FEFDCF8EB58093FF
:1008E00043028EB508959EBD0DB407FEFDCF8EBDAB
:1008F0000DB407FEFDCF8EB590E00895389A0895A7
:10090000409A2FEF89E698E1215080409040E1F72E
:1009100000C0000040982FEF84E39CE0215080400D
:100920009040E1F700C000000895539A86E990E0F6
:100930005B9AEFE9FFE03197F1F700C000005B98A8
:10094000EFE9FFE03197F1F700C00000019781F770
:100950000895A0E1B0E0EFEAF4E00C94C0087C0157
:100960001B016A01FC0117821682838181FF44C347
:100970009E012F5F3F4F3901F7019381F10193FDF4
:10098000859193FF81911F01882309F431C385323A
:1009900039F493FD859193FF81911F01853239F4DC
:1009A000B70190E00E945C0B56016501E5CF10E0B5
:1009B000512C912CFFE1F915D8F08B3279F038F4F5
:1009C000803279F08332A1F4F92DF0612EC08D329E
:1009D00061F0803369F4292D21602DC0392D3260FA
:1009E000932E892D8460982E2AC0E92DE86015C0C9
:1009F00097FC2DC020ED280F2A3088F496FE06C003
:100A00003AE0139F200D1124122F19C08AE0589E3E
:100A1000200D1124522EE92DE0629E2E10C08E3240
:100A200031F496FCE5C2F92DF0649F2E08C08C3697
:100A300021F4292D2068922E02C0883641F4F1015C
:100A400093FD859193FF81911F018111B3CF9BEBA2
:100A5000980F933020F4992D9061805E07C09BE938
:100A6000980F933008F066C1992D9F7E96FF16E08F
:100A70009F73992E853619F49064992E08C0863696
:100A800021F4392F3068932E02C01111115097FEB6
:100A900007C01C3350F444244394410E27E00BC09C
:100AA000183038F027E017E005C027E09CE3492E16
:100AB00002C0212F412C560184E0A80EB11CF60182
:100AC0006081718182819381042DA3010E946E0A4D
:100AD0006C01F981FC87F0FF02C0F3FF06C091FCB6
:100AE00006C092FE06C000E205C00DE203C00BE2A4
:100AF00001C000E08C858C7019F001115AC29BC2B4
:100B000097FE10C04C0CFC85F4FF04C08A81813331
:100B100009F44A94141474F528E0241578F588E053
:100B2000482E2CC096FC2AC0812F90E08C159D0584
:100B30009CF03CEFC3163FEFD30674F0892D80681C
:100B4000982E0AC0E2E0F0E0EC0FFD1FE10FF11D6E
:100B50008081803319F411501111F4CF97FE0EC02B
:100B600044244394410E812F90E0C816D9062CF4FA
:100B70001C1904C04424439401C010E097FE06C031
:100B80001C141D0434F4C601019605C085E090E0F4
:100B900002C081E090E001110196112331F0212F74
:100BA00030E02F5F3F4F820F931F252D30E08217DB
:100BB000930714F4581A01C0512C892D897049F4F7
:100BC000552039F0B70180E290E00E945C0B5A9406
:100BD000F7CF002329F0B701802F90E00E945C0B33
:100BE00093FC09C0552039F0B70180E390E00E94E2
:100BF0005C0B5A94F7CF97FE4CC04601D7FE02C05B
:100C0000812C912CC60188199909F301E80FF91F6D
:100C1000FE87ED87960124193109388B2F87012F24
:100C200010E01195019511093FEF8316930629F401
:100C3000B7018EE290E00E945C0BC814D9044CF01E
:100C40008F8598898815990524F4ED85FE85818125
:100C500001C080E3F1E08F1A91082D853E852F5F5A
:100C60003F4F3E872D87801691062CF0B70190E00C
:100C70000E945C0BD9CFC814D90441F49A819633F1
:100C800020F4953319F43C8534FF81E3B70190E0FB
:100C90004EC08A81813319F09C859F7E9C87B70165
:100CA00090E00E945C0B111105C094FC18C085E611
:100CB00090E017C0B7018EE290E00E945C0B1E5FCF
:100CC00082E001E0080FF301E80FF11D8081B70118
:100CD00090E00E945C0B802F0113F3CFE6CF85E4F8
:100CE00090E0B7010E945C0BD7FC06C0C114D10490
:100CF00041F4EC85E4FF05C0D194C194D1088DE2A4
:100D000001C08BE2B70190E00E945C0B80E32AE017
:100D1000C216D1042CF08F5FFAE0CF1AD108F7CFBA
:100D2000B70190E00E945C0BB701C601C0960E941B
:100D30005C0B54C1833631F0833779F0833509F089
:100D400056C020C0560132E0A30EB11CF6018081CE
:100D5000898301E010E0630112C05601F2E0AF0E9A
:100D6000B11CF601C080D18096FE03C0612F70E0F7
:100D700002C06FEF7FEFC6010E94510B8C01F92D6D
:100D8000FF7714C0560122E0A20EB11CF601C0800C
:100D9000D18096FE03C0612F70E002C06FEF7FEF3D
:100DA000C6010E94460B8C01F92DF0689F2EF3FDC1
:100DB0001AC0852D90E008171907A8F4B70180E242
:100DC00090E00E945C0B5A94F4CFF60197FC859159
:100DD00097FE81916F01B70190E00E945C0B51106A
:100DE0005A94015011090115110579F7F7C084369D
:100DF00011F0893661F5560197FE09C024E0A20E74
:100E0000B11CF60160817181828193810AC0F2E098
:100E1000AF0EB11CF60160817181072E000C880BAA
:100E2000990BF92DFF769F2E97FF09C0909580951D
:100E3000709561957F4F8F4F9F4FF0689F2E2AE0EE
:100E400030E0A3010E94DE0BC82EC6183FC0092D5A
:100E5000853721F40F7E2AE030E01DC0097F8F36F0
:100E600091F018F4883559F0C3C0803719F08837ED
:100E700011F0BEC0006104FF09C0046007C094FE09
:100E800008C0066006C028E030E005C020E130E080
:100E900002C020E132E0560107FF09C084E0A80E3D
:100EA000B11CF601608171818281938108C0F2E0FA
:100EB000AF0EB11CF6016081718180E090E0A3016A
:100EC0000E94DE0BC82EC6180F77902E96FE0BC020
:100ED000092D0E7FC11650F494FE0AC092FC08C082
:100EE000092D0E7E05C0DC2C092D03C0DC2C01C0B1
:100EF000D12E04FF0DC0FE01EC0DF11D8081803369
:100F000011F4097E09C002FF06C0D394D39404C033
:100F1000802F867809F0D39403FD11C000FF06C02E
:100F20001C2DD51480F4150D1D190DC0D51458F4C1
:100F3000B70180E290E00E945C0BD394F7CFD51408
:100F400010F45D1801C0512C04FF10C0B70180E3FC
:100F500090E00E945C0B02FF17C001FD03C088E710
:100F600090E002C088E590E0B7010CC0802F867841
:100F700059F001FF02C08BE201C080E207FD8DE263
:100F8000B70190E00E945C0BC11638F4B70180E312
:100F900090E00E945C0B1150F7CFCA94F301EC0D66
:100FA000F11D8081B70190E00E945C0BC110F5CF6C
:100FB00015C0F4E0F51560F584E0581A93FE1FC0E3
:100FC000011127C02C8523FF2AC008E610E0392D27
:100FD0003071932EF8018491811124C0552009F4B9
:100FE000E4CCB70180E290E00E945C0B5A94F6CF0B
:100FF000F7018681978126C08FEF9FEF23C0B7014D
:1010000080E290E00E945C0B5A945110F8CFD8CF48
:10101000512CB701802F90E00E945C0BD3CF0CE6DF
:1010200010E0D5CF91108052B70190E00E945C0B88
:101030000F5F1F4FCFCF23E0251510F483E0BDCF06
:10104000512CC0CF6096E2E10C94DC08CF93DF9383
:10105000CDB7DEB72C970FB6F894DEBF0FBECDBF6D
:1010600087E690E00E943F0480E091E090934C027C
:1010700080934B020E94AE0178940EE011E0CE0105
:1010800001960E9410038CE0FE013196ABE7B1E0BF
:1010900001900D928A95E1F7C0908301D090840170
:1010A000E0908501F090860140917F015091800190
:1010B000609181017091820180917B0190917C010E
:1010C000A0917D01B0917E01FF92EF92DF92CF92CD
:1010D0007F936F935F934F93BF93AF939F938F9340
:1010E0001F930F930E94980B2FEF82E597E02150FA
:1010F00080409040E1F700C000000FB6F894DEBFDA
:101100000FBECDBFBCCFDB018F939F930E94B5086C
:10111000BF91AF91A29F800D911DA39F900DB29F93
:10112000900D11240895A1E21A2EAA1BBB1BFD01EC
:101130000DC0AA1FBB1FEE1FFF1FA217B307E407B6
:10114000F50720F0A21BB30BE40BF50B661F771F0E
:10115000881F991F1A9469F76095709580959095EE
:101160009B01AC01BD01CF0108950E94F708A59F26
:10117000900DB49F900DA49F800D911D1124089592
:101180002F923F924F925F926F927F928F929F9297
:10119000AF92BF92CF92DF92EF92FF920F931F9385
:1011A000CF93DF93CDB7DEB7CA1BDB0B0FB6F89436
:1011B000DEBF0FBECDBF09942A88398848885F8476
:1011C0006E847D848C849B84AA84B984C884DF80E7
:1011D000EE80FD800C811B81AA81B981CE0FD11DCB
:1011E0000FB6F894DEBF0FBECDBFED010895A29FEC
:1011F000B001B39FC001A39F700D811D1124911DEB
:10120000B29F700D811D1124911D08955058BB2768
:10121000AA270E941E090C94C7090E94B90938F038
:101220000E94C00920F039F49F3F19F426F40C9471
:10123000B6090EF4E095E7FB0C94B009E92F0E9483
:10124000D80958F3BA17620773078407950720F087
:1012500079F4A6F50C94FA090EF4E0950B2EBA2F4A
:10126000A02D0B01B90190010C01CA01A0011124AC
:10127000FF27591B99F0593F50F4503E68F11A1658
:10128000F040A22F232F342F4427585FF3CF4695E9
:1012900037952795A795F0405395C9F77EF41F160B
:1012A000BA0B620B730B840BBAF09150A1F0FF0FD5
:1012B000BB1F661F771F881FC2F70EC0BA0F621FC1
:1012C000731F841F48F4879577956795B795F795B1
:1012D0009E3F08F0B0CF9395880F08F09927EE0F46
:1012E000979587950895E89409C097FB3EF49095EB
:1012F0008095709561957F4F8F4F9F4F9923A9F0EF
:10130000F92F96E9BB279395F6958795779567957D
:10131000B795F111F8CFFAF4BB0F11F460FF1BC0C1
:101320006F5F7F4F8F4F9F4F16C0882311F096E954
:1013300011C0772321F09EE8872F762F05C0662302
:1013400071F096E8862F70E060E02AF09A95660FBB
:10135000771F881FDAF7880F9695879597F9089574
:1013600097F99F6780E870E060E008959FEF80EC58
:10137000089500240A9416161706180609060895FB
:1013800000240A9412161306140605060895092E61
:101390000394000C11F4882352F0BB0F40F4BF2BD0
:1013A00011F460FF04C06F5F7F4F8F4F9F4F089510
:1013B00057FD9058440F551F59F05F3F71F0479506
:1013C000880F97FB991F61F09F3F79F087950895EB
:1013D000121613061406551FF2CF4695F1DF08C00A
:1013E000161617061806991FF1CF86957105610527
:1013F00008940895E894BB2766277727CB0197F9CF
:1014000008950E94140A0C94C7090E94B90938F083
:101410000E94C00920F0952311F00C94B0090C949F
:10142000B60911240C94FB090E94D80970F3959F0A
:10143000C1F3950F50E0551F629FF001729FBB27CB
:10144000F00DB11D639FAA27F00DB11DAA1F649F67
:101450006627B00DA11D661F829F2227B00DA11D1A
:10146000621F739FB00DA11D621F839FA00D611DA0
:10147000221F749F3327A00D611D231F849F600DC1
:10148000211D822F762F6A2F11249F5750409AF0EA
:10149000F1F088234AF0EE0FFF1FBB1F661F771F76
:1014A000881F91505040A9F79E3F510580F00C9441
:1014B000B0090C94FB095F3FE4F3983ED4F38695A2
:1014C00077956795B795F795E7959F5FC1F7FE2BE1
:1014D000880F911D9695879597F90895283008F003
:1014E00027E03327DA01990F311D87FD91600096BF
:1014F0006105710539F432602E5F3D9330E32A9522
:10150000E1F708959F3F30F080387105610509F0DB
:101510003C5F3C5F3D93913008F08068911DDF9304
:10152000CF931F930F93FF92EF92192F987F969569
:10153000E92F96959695E90FFF27E653FF4F9927D8
:101540003327EE24FF24A701E701059008940794B0
:1015500028F4360FE71EF81E491F511D660F771F2E
:10156000881F991F0694A1F70590079428F4E70EA9
:10157000F81E491F561FC11D770F881F991F661F30
:101580000694A1F70590079428F4F80E491F561FFA
:10159000C71FD11D880F991F661F771F0694A1F7DB
:1015A0000590079420F4490F561FC71FD81F990FA5
:1015B000661F771F881F0694A9F7849110951770EE
:1015C00041F0D695C79557954795F794E7941A95A6
:1015D000C1F7E0E7F0E068941590159135916591B9
:1015E000959105907FE27395E118F10A430B560B34
:1015F000C90BD009C0F7E10CF11E431F561FC91FCC
:10160000D01D7EF4703311F48A95E6CFE894015032
:1016100030F0080F0AF40027021708F4202F239552
:10162000022F7A3328F079E37D932A95E9F710C0E9
:101630007D932A9589F60694979567953795179522
:101640001794E118F10A430B560BC90BD00998F017
:1016500023957E9173957A3308F070E37C93201381
:10166000B8F77E9170617D9330F0839571E37D933F
:1016700070E32A95E1F71124EF90FF900F911F91ED
:10168000CF91DF91992787FD90950895FC010590F2
:10169000615070400110D8F7809590958E0F9F1F74
:1016A0000895FC016150704001900110D8F78095B9
:1016B00090958E0F9F1F08950F931F93CF93DF93E5
:1016C000FB01238121FD03C08FEF9FEF2CC022FF80
:1016D00016C046815781248135814217530744F44F
:1016E000A081B1819D012F5F3F4F318320838C9377
:1016F000268137812F5F3F4F3783268314C08B01AC
:10170000EC01FB010084F185E02D0995892BE1F6C0
:10171000D80116968D919C911797019617969C93D8
:101720008E931697CE01DF91CF911F910F9108955F
:10173000A0E0B0E0EEE9FBE00C94D008AE014B5F16
:101740005F4FFA0161917191AF0180914B029091CD
:101750004C020E94A904E2E00C94EC080F931F9342
:10176000CF93DF93E0914B02F0914C02238121FF54
:101770001BC08C01D0E0C0E0F80181918F01609125
:101780004B0270914C02DB011896ED91FC91199778
:10179000882331F00995892B79F3DFEFCFEFECCF78
:1017A0008AE00995892B19F08FEF9FEF02C08D2FEA
:1017B0009C2FDF91CF911F910F910895FA01AA27D5
:1017C000283051F1203181F1E8946F936E7F6E5F84
:1017D0007F4F8F4F9F4FAF4FB1E03ED0B4E03CD032
:1017E000670F781F891F9A1FA11D680F791F8A1F15
:1017F000911DA11D6A0F711D811D911DA11D20D07C
:1018000009F468943F912AE0269F11243019305D35
:101810003193DEF6CF010895462F4770405D419326
:10182000B3E00FD0C9F7F6CF462F4F70405D4A3373
:1018300018F0495D31FD4052419302D0A9F7EACF3B
:10184000B4E0A6959795879577956795BA95C9F76A
:1018500000976105710508959B01AC010A2E06945D
:101860005795479537952795BA95C9F7620F731F16
:0C187000841F951FA01D0895F894FFCF61
:10187C0000000002000000004A0400000000675F46
:10188C00783A2025662C20675F793A2025662C2033
:10189C00675F7A3A2025660A004C534D3944533120
:1018AC0020574F524B494E472050524F5045524CA7
:1018BC00592100536F6D657468696E6720697320D8
:1018CC0077726F6E672C20636865636B2077697223
:0818DC00696E67203A28000044
:00000001FF
