:100000000C94D3000C94F0000C94F0000C94F000CD
:100010000C94F0000C94F0000C94F0000C94F000A0
:100020000C94F0000C94F0000C94F0000C94F00090
:100030000C94F0000C94F0000C94F0000C94F00080
:100040000C94F0000C94F0000C94F0000C94F00070
:100050000C94F0000C94F0000C94F0000C94F00060
:100060000C94F0000C94F000036EDB363D9A9999E5
:10007000993DABAAAA2A3E000000803F072C7AA532
:10008000BA6CC590DA3B9365FC8BBC53F810FD3C11
:100090005692834DBD879D3AB63DCBC9BF5BBE73BB
:1000A000DA0FC93F6E616E00696E660000407A101B
:1000B000F35A00A0724E18090010A5D4E80000E819
:1000C0007648170000E40B54020000CA9A3B000077
:1000D00000E1F505000080969800000040420F0006
:1000E0000000A08601000000102700000000E803C7
:1000F000000000006400000000000A000000000092
:100100000100000000002C76D888DC674F0823DF50
:10011000C1DFAE59E1B1B796E5E3E453C63AE65123
:10012000997696E8E6C28426EB898C9B62ED407C4A
:100130006FFCEFBC9C9F40F2BAA56FA5F490055AE6
:100140002AF75C936B6CF9676DC11BFCE0E40D470B
:10015000FEF520E6B500D0ED902E0300943577052E
:100160000080841E080000204E0A000000C80C33E6
:100170003333330F986E12831141EF8D2114893B75
:10018000E65516CFFEE6DB18D1844B381BF77C1DF5
:10019000901DA4BBE424203284725E228100C9F148
:1001A00024ECA1E53D2711241FBECFEFD8E0DEBF30
:1001B000CDBF11E0A0E0B1E0E6EAF7E102C00590B2
:1001C0000D92A235B107D9F721E0A2E5B1E001C057
:1001D0001D92A23EB207E1F70E94FC050C94D10BE0
:1001E0000C940000299880EA8A95F1F78BE90E9427
:1001F00041028FEF0E9441028093D4018AE90E945C
:1002000041028FEF0E9441028093CF01299A809191
:10021000D40190E0982F88272091CF01822B9093D2
:100220005901809358010895299880EA8A95F1F739
:1002300083EA0E9441028FEF0E9441028093CE0127
:1002400082EA0E9441028FEF0E9441028093630183
:10025000299A809163018093CE0108954F925F9215
:100260006F927F92AF92BF92CF92DF92EF92FF9206
:100270000F931F93CF93DF93CDB7DEB729013A01D8
:10028000621B730B840B950B29893A894B895C8916
:100290002A193B094C095D09298B3A8B4B8B5C8BE6
:1002A0009B01AC0169897A898B899C890E94E60649
:1002B000E418F50806091709A80197010E94F60637
:1002C000A20EB31EB0925F01A0925E01B501882715
:1002D00077FD8095982FDF91CF911F910F91FF901F
:1002E000EF90DF90CF90BF90AF907F906F905F9036
:1002F0004F900895E0E8F0E08081826A8083E1E831
:10030000F0E080818A6180831092850010928400E1
:1003100080E49CE990938700809386008AEE9BE0BE
:10032000909389008093880090938B0080938A003B
:1003300008959C01263A8FEF380719F486E495E07A
:1003400005C02A35310561F48EE892E19093890069
:10035000809388008FE39CE90197F1F700C00000CB
:10036000442737FD4095542F265A3F4F4F4F5F4F3C
:10037000A8E4BDE00E94180724EB30E040E050E024
:100380000E94F6062A5B3A4F30935F0120935E018C
:1003900030938900209388008FE39CE90197F1F75F
:1003A00000C0000008959C01263A8FEF380719F429
:1003B00086E495E005C02A35310561F48EE892E1C6
:1003C00090938B0080938A008FE39CE90197F1F76B
:1003D00000C00000442737FD4095542F265A3F4F58
:1003E0004F4F5F4FA8E4BDE00E94180724EB30E0B8
:1003F00040E050E00E94F6062A5B3A4F30935F01DE
:1004000020935E0130938B0020938A008FE39CE958
:100410000197F1F700C00000089594B121E030E0A9
:10042000082E01C0220F0A94EAF7922B94B908957E
:100430009093C5008093C40088E18093C10086E05A
:100440008093C2000895CF93C82F8A3019F48DE0AD
:100450000E9423028091C00085FFFCCFC093C6009C
:10046000CF9108958091C00087FFFCCF8091C60096
:10047000089584B18C6284B92498299A8CE58CBD46
:1004800008958EBD0DB407FEFDCF8EB58093DB01C0
:100490008EB508959EBD0DB407FEFDCF8EBD0DB483
:1004A00007FEFDCF8EB590E00895389A0895409AE2
:1004B0002FEF89E698E1215080409040E1F700C09D
:1004C000000040982FEF84E39CE021508040904052
:1004D000E1F700C000000895539A86E990E05B9A26
:1004E000EFE9FFE03197F1F700C000005B98EFE91A
:1004F000FFE03197F1F700C000000197009779F70E
:100500000895A3E1B0E0E7E8F2E00C9423077C0152
:100510001B016A01FC0117821682838181FF66C379
:10052000BE016F5F7F4F4B01F7019381F10193FD96
:10053000859193FF81911F01882309F453C385326C
:1005400039F493FD859193FF81911F01853239F430
:10055000B70190E00E94000B56016501E5CF10E065
:10056000512C20E02032A0F48B3269F030F480323C
:1005700059F0833269F420612CC08D3239F0803318
:1005800039F4216026C02260246023C0286021C085
:1005900027FD27C030ED380F3A3078F426FF06C02B
:1005A000FAE01F9F300D1124132F13C06AE0569EEE
:1005B000300D1124532E20620CC08E3221F426FD02
:1005C00011C3206406C08C3611F4206802C088363E
:1005D00041F4F10193FD859193FF81911F018111F8
:1005E000C1CF9BEB980F933018F42061805E06C05A
:1005F0009BE9980F933008F0AAC12F7E26FF16E0E2
:100600002F73722E853621F4F22FF0647F2E08C0EE
:10061000863621F4622F6068762E02C011111150C7
:1006200077FE07C01C3348F444244394410E27E06E
:100630000BC0183030F4212F06C027E04CE3442EC5
:1006400003C027E017E0412C560174E0A70EB11C4F
:10065000F6016081718182819381042DA4010E9441
:10066000120A6C01098100FF02C003FF06C071FC81
:1006700007C072FC08C0612C08C03DE2632E05C0B3
:100680002BE2622E02C090E2692E802F8C7099F1CD
:10069000662011F084E001C083E0851510F0512C34
:1006A0000BC0581A73FC08C0B70180E290E00E94AA
:1006B000000B5A94C9F7F3CF662029F0B701862DB5
:1006C00090E00E94000B03FD03C008EA10E002C0A6
:1006D00004EA10E0F72DF0717F2EF8018491882351
:1006E00009F476C271108052B70190E00E94000BAD
:1006F0000F5F1F4FF2CF77FE0FC04C0C04FF04C0FA
:100700008A81813309F44A94141474F5F8E0F415DD
:1007100078F588E0482E2CC076FC2AC0812F90E026
:100720008C159D059CF06CEFC6166FEFD60674F025
:10073000772D7068772E0AC0E2E0F0E0EC0FFD1F25
:10074000E10FF11D8081803319F411501111F4CFA4
:1007500077FE0EC044244394410E812F90E0C816CA
:10076000D9062CF41C1904C04424439401C010E0A1
:1007700077FE07C01C141D043CF496012F5F3F4F09
:1007800005C025E030E002C021E030E0662011F035
:100790002F5F3F4F112331F0412F50E04F5F5F4FEC
:1007A000240F351F452D50E02417350714F4521A35
:1007B00001C0512C872D897049F4552039F0B701BB
:1007C00080E290E00E94000B5A94F7CF662029F057
:1007D000B701862D90E00E94000B73FC09C05520E4
:1007E00039F0B70180E390E00E94000B5A94F7CFF4
:1007F00077FE5FC09C2D8D2DD7FE02C090E080E07B
:10080000692E782E40E050E0C601841991099D8739
:100810008C87960126193709280D391D812F90E004
:10082000EE27FF27E81BF90BFF87EE87FFEF6F1618
:100830007F0669F4B7018EE290E02B8B3A8B488BF0
:10084000598B0E94000B598948893A892B89C61413
:10085000D70454F06C857D85661577052CF4F90175
:10086000E40FF51F818101C080E371E0671A710810
:100870004F5F5F4FEE85FF856E167F066CF0B70108
:1008800090E02B8B3A8B488B598B0E94000B2B8965
:100890003A8948895989CACF6C147D0439F49A8100
:1008A000963318F4953311F404FF81E3B70190E017
:1008B0004BC08A81813309F00F7EB70190E00E941E
:1008C000000B111105C074FE18C085E490E017C03C
:1008D000B7018EE290E00E94000B82E066246394F0
:1008E000680EF401E80FF11D8081B70190E00E94CD
:1008F000000B115041F3862DF1CF85E690E0B70152
:100900000E94000BD7FC05C0C114D10439F404FFC8
:1009100005C0D194C194D1088DE201C08BE2B7012A
:1009200090E00E94000B80E36AE0C616D1042CF030
:100930008F5FFAE0CF1AD108F7CFB70190E00E949D
:10094000000BB701C601C0960E94000B41C183365F
:1009500031F0833779F0833509F058C021C0560152
:1009600072E0A70EB11CF6018081898301E010E0DE
:10097000640114C05601F2E0AF0EB11CF601C08054
:10098000D18026FF03C0612F70E002C06FEF7FEFC0
:10099000C6012B8B0E94F50A8C012B892F7715C07D
:1009A0005601F2E0AF0EB11CF601C080D18026FFE7
:1009B00003C0612F70E002C06FEF7FEFC6012B8B89
:1009C0000E94EA0A8C012B892068722E23FD1AC02E
:1009D000852D90E008171907A8F4B70180E290E090
:1009E0000E94000B5A94F4CFF60177FC859177FEB4
:1009F00081916F01B70190E00E94000B51105A9451
:100A0000015011090115110579F7E2C0843611F082
:100A1000893651F5560127FF09C0F4E0AF0EB11C2D
:100A2000F60160817181828193810AC0F2E0AF0E8C
:100A3000B11CF60160817181882777FD8095982F20
:100A4000022F0F7697FF08C090958095709561955D
:100A50007F4F8F4F9F4F00682AE030E0A4010E9433
:100A6000730BC82EC8183EC0022F853721F40F7EA5
:100A70002AE030E01DC0097F8F3691F018F48835E8
:100A800059F0B0C0803719F0883711F0ABC0006161
:100A900004FF09C0046007C024FF08C0066006C048
:100AA00028E030E005C020E130E002C020E132E083
:100AB000560107FF09C0F4E0AF0EB11CF6016081DA
:100AC00071818281938108C0F2E0AF0EB11CF60102
:100AD0006081718180E090E0A4010E94730BC82EB8
:100AE000C8180F7706FF0BC0202F2E7FC11650F4B9
:100AF00004FF0AC002FD08C0202F2E7E05C0DC2C9A
:100B0000202F03C0DC2C01C0D12E24FF0DC0FE011C
:100B1000EC0DF11D8081803311F4297E09C022FF84
:100B200006C0D394D39404C0822F867809F0D3945E
:100B300023FD13C020FF06C01C2DD51418F4150D7D
:100B40001D19D52CD51468F4B70180E290E02B8BE9
:100B50000E94000BD3942B89F5CFD51410F45D18A7
:100B600001C0512C24FF12C0B70180E390E02B8B11
:100B70000E94000B2B8922FF17C021FF03C088E5CC
:100B800090E002C088E790E0B7010CC0822F867821
:100B900059F021FD02C080E201C08BE227FD8DE209
:100BA000B70190E00E94000BC11638F4B70180E352
:100BB00090E00E94000B1150F7CFCA94F401EC0DA5
:100BC000F11D8081B70190E00E94000BC110F5CFAC
:100BD000552009F4C2CCB70180E290E00E94000BDE
:100BE0005A94F6CFF7018681978102C08FEF9FEF6D
:100BF0006396E2E10C943F070E946C020E9455024A
:100C0000219A299A0E9439022FEF89E698E1215012
:100C100080409040E1F700C0000087E690E00E942D
:100C20001802789480E091E09093DF018093DE01D8
:100C3000299880E10E94410281E40E944102299AA0
:100C40002FEF83EC99E0215080409040E1F700C005
:100C50000000299880E20E94410280E20E94410245
:100C6000299A2FEF89E698E1215080409040E1F7E2
:100C700000C00000299880E90E9441028FEF0E9485
:100C800041028093D001299A8091D0011F928F93C5
:100C90008EE091E09F938F930E94320B2FEF83ECB5
:100CA00099E0215080409040E1F700C00000299871
:100CB0008FE80E9441028FEF0E9441028093D90188
:100CC000299A0F900F900F900F908091D90188363C
:100CD00039F482E191E00E94460BC5E4D1E032C0D4
:100CE0008BE291E0F8CF2DEC3CEC4CEC5FE3C701DC
:100CF000B6010E94800718162CF120E030E044E392
:100D000053E4C701B6010E94F3082BED3FE049E42C
:100D100050E40E9484079F938F937F936F93DF9398
:100D2000CF930E94320B2FEF83EC99E0215080404B
:100D30009040E1F700C000000F900F900F900F90CF
:100D40000F900F90299820EA2A95F1F789EA0E94DE
:100D500041028FEF0E9441028093620188EA0E9463
:100D600041028FEF0E9441028093D301299A809122
:100D7000620190E0982F88272091D301822B9093D5
:100D80005301809352016091520170915301882761
:100D900077FD8095982F0E94EE0723E23BED49E70F
:100DA0005DE30E94F3082FE632E143E85AE30E9434
:100DB000F3080E9469076B017C012DEC3CEC4CECC4
:100DC0005FEB0E94EF0887FDBDCF8DCFDB018F93D6
:100DD0009F930E941807BF91AF91A29F800D911D14
:100DE000A39F900DB29F900D11240895A1E21A2E99
:100DF000AA1BBB1BFD010DC0AA1FBB1FEE1FFF1FBF
:100E0000A217B307E407F50720F0A21BB30BE40B0E
:100E1000F50B661F771F881F991F1A9469F7609555
:100E20007095809590959B01AC01BD01CF0108950F
:100E30000E945A07A59F900DB49F900DA49F800D0E
:100E4000911D112408952F923F924F925F926F92BD
:100E50007F928F929F92AF92BF92CF92DF92EF924A
:100E6000FF920F931F93CF93DF93CDB7DEB7CA1BCB
:100E7000DB0B0FB6F894DEBF0FBECDBF09942A88F6
:100E8000398848885F846E847D848C849B84AA849E
:100E9000B984C884DF80EE80FD800C811B81AA812B
:100EA000B981CE0FD11D0FB6F894DEBF0FBECDBFF6
:100EB000ED010895A29FB001B39FC001A39F700DE3
:100EC000811D1124911DB29F700D811D1124911D52
:100ED00008959F939F77EEE389379E0720F4E8E615
:100EE000F0E024D109C0B5D09058A2EA2AED3FE045
:100EF00049EC5FE32FD239D10F9007FC9058089549
:100F0000C3D008F481E008950CD02FC127D140F060
:100F10001ED130F021F45F3F19F0DAC0511159C1F0
:100F2000DDC034D198F39923C9F35523B1F3951B50
:100F3000550BBB27AA2762177307840738F09F5FFA
:100F40005F4F220F331F441FAA1FA9F333D00E2E69
:100F50003AF0E0E830D091505040E695001CCAF7D6
:100F600029D0FE2F27D0660F771F881FBB1F26179B
:100F700037074807AB07B0E809F0BB0B802DBF016E
:100F8000FF2793585F4F2AF09E3F510568F0A0C09D
:100F900020C15F3FECF3983EDCF38695779567952B
:100FA000B795F7959F5FC9F7880F911D969587951F
:100FB00097F90895E1E0660F771F881FBB1F62173E
:100FC00073078407BA0720F0621B730B840BBA0BFC
:100FD000EE1F88F7E0950895E89409C097FB3EF46A
:100FE00090958095709561957F4F8F4F9F4F992376
:100FF000A9F0F92F96E9BB279395F69587957795F4
:101000006795B795F111F8CFFAF4BB0F11F460FFB3
:101010001BC06F5F7F4F8F4F9F4F16C0882311F00B
:1010200096E911C0772321F09EE8872F762F05C01F
:10103000662371F096E8862F70E060E02AF09A95BA
:10104000660F771F881FDAF7880F9695879597F9AF
:101050000895DF93CF931F930F938B01EC01ECE77F
:10106000F0E03FD082D09801AE018B01EC0160E04E
:1010700070E080E89FE35CD11DD19801AE010F9133
:101080001F91CF91DF91BBC0990F0008550FAA0B9C
:10109000E0E8FEEF16161706E807F907C0F012168B
:1010A0001306E407F50798F0621B730B840B950B8E
:1010B00039F40A2661F0232B242B252B21F40895E3
:1010C0000A2609F4A140A6958FEF811D811D089580
:1010D00097F99F6780E870E060E008959FEF80ECEB
:1010E0000895DF93CF931F930F93FF92EF92DF92B8
:1010F0007B018C01689405C0DA2EEF0180D0FE01DF
:10110000E894A5912591359145915591AEF3EF0164
:1011100021D1FE019701A801DA9479F7DF90EF90D1
:10112000FF900F911F91CF91DF9108959F938F931F
:101130007F936F93FF93EF939B01AC0154D0EF919A
:10114000FF91CFDF2F913F914F915F914CC00024D1
:101150000A941616170618060906089500240A941C
:1011600012161306140605060895092E0394000CA2
:1011700011F4882352F0BB0F40F4BF2B11F460FF31
:1011800004C06F5F7F4F8F4F9F4F089557FD90585A
:10119000440F551F59F05F3F71F04795880F97FB3B
:1011A000991F61F09F3F79F08795089512161306F5
:1011B0001406551FF2CF4695F1DF08C01616170624
:1011C0001806991FF1CF8695710561050894089559
:1011D000E894BB2766277727CB0197F9089554DF5A
:1011E00008F48FEF08950BD0C0CFB1DF28F0B6DF41
:1011F00018F0952309F06CCF71CF1124EACFC6DF28
:10120000A0F3959FD1F3950F50E0551F629FF00119
:10121000729FBB27F00DB11D639FAA27F00DB11D72
:10122000AA1F649F6627B00DA11D661F829F2227FB
:10123000B00DA11D621F739FB00DA11D621F839F82
:10124000A00D611D221F749F3327A00D611D231F58
:10125000849F600D211D822F762F6A2F11249F57A6
:1012600050408AF0E1F088234AF0EE0FFF1FBB1FC9
:10127000661F771F881F91505040A9F79E3F510568
:1012800070F026CFA6CF5F3FECF3983EDCF3869557
:1012900077956795B795F795E7959F5FC1F7FE2B13
:1012A000880F911D9695879597F9089511F40EF47E
:1012B00015CFA3C073DFD0F39923D9F3CEF39F5793
:1012C000550B87FFA8D00024A0E640EA9001805883
:1012D0005695979528F4805C660F771F881F20F03D
:1012E00026173707480730F4621B730B840B20293D
:1012F00031294A2BA69517940794202531254A2792
:1013000058F7660F771F881F20F026173707480702
:1013100030F4620B730B840B200D311D411DA09521
:1013200081F7B901842F9158880F96958795089574
:101330005058BB27AA270ED018CF09DF30F00EDF98
:1013400020F031F49F3F11F41EF4C8CE0EF4E09566
:10135000E7FBBECEE92F1ADF80F3BA1762077307E7
:101360008407950718F071F49EF532CF0EF4E095DE
:101370000B2EBA2FA02D0B01B90190010C01CA014F
:10138000A0011124FF27591B99F0593F50F4503EFA
:1013900068F11A16F040A22F232F342F4427585FEC
:1013A000F3CF469537952795A795F0405395C9F704
:1013B0007EF41F16BA0B620B730B840BBAF09150BC
:1013C000A1F0FF0FBB1F661F771F881FC2F70EC05B
:1013D000BA0F621F731F841F48F48795779567952E
:1013E000B795F7959E3F08F0B3CF9395880F08F017
:1013F0009927EE0F9795879508959F3F31F091506B
:1014000020F4879577956795B795880F911D9695E8
:10141000879597F9089591505040660F771F881F60
:10142000D2F70895283008F027E03327DA01990F22
:10143000311D87FD916000966105710539F43260B8
:101440002E5F3D9330E32A95E1F708959F3F30F0FA
:1014500080387105610509F03C5F3C5F3D93913038
:1014600008F08068911DDF93CF931F930F93FF9235
:10147000EF92192F987F9695E92F96959695E90FFB
:10148000FF27EA5FFE4F99273327EE24FF24A701A9
:10149000E70105900894079428F4360FE71EF81E1C
:1014A000491F511D660F771F881F991F0694A1F7CA
:1014B0000590079428F4E70EF81E491F561FC11D1A
:1014C000770F881F991F661F0694A1F70590079450
:1014D00028F4F80E491F561FC71FD11D880F991FEA
:1014E000661F771F0694A1F70590079420F4490F13
:1014F000561FC71FD81F990F661F771F881F069496
:10150000A9F784911095177041F0D695C795579516
:101510004795F794E7941A95C1F7ECEAF0E06894E0
:101520001590159135916591959105907FE2739590
:10153000E118F10A430B560BC90BD009C0F7E10CB7
:10154000F11E431F561FC91FD01D7EF4703311F4C6
:101550008A95E6CFE894015030F0080F0AF400278E
:10156000021708F4202F2395022F7A3328F079E30D
:101570007D932A95E9F710C07D932A9589F6069404
:1015800097956795379517951794E118F10A430BCE
:10159000560BC90BD00998F023957E9173957A3339
:1015A00008F070E37C932013B8F77E9170617D930F
:1015B00030F0839571E37D9370E32A95E1F7112470
:1015C000EF90FF900F911F91CF91DF91992787FDA9
:1015D00090950895FC010590615070400110D8F776
:1015E000809590958E0F9F1F0895FC01615070406B
:1015F00001900110D8F7809590958E0F9F1F089548
:101600000F931F93CF93DF93182F092FEB018B813B
:1016100081FD03C08FEF9FEF20C082FF10C04E817D
:101620005F812C813D81421753077CF4E881F98169
:101630009F012F5F3F4F39832883108306C0E885C1
:10164000F985812F0995892B29F72E813F812F5FFD
:101650003F4F3F832E83812F902FDF91CF911F919A
:101660000F910895A0E0B0E0E8E3FBE00C943307AD
:10167000FE01359661917191AF018091DE019091EB
:10168000DF010E948102E2E00C944F070F931F9349
:10169000CF93DF93E091DE01F091DF01238121FF01
:1016A0001BC0EC0100E010E089916091DE017091B7
:1016B000DF01DB011896ED91FC911997882331F039
:1016C0000995892B89F30FEF1FEFEECF8AE009957B
:1016D000892B11F4C80102C08FEF9FEFDF91CF91EA
:1016E0001F910F910895FA01AA27283051F1203156
:1016F00081F1E8946F936E7F6E5F7F4F8F4F9F4FA6
:10170000AF4FB1E03ED0B4E03CD0670F781F891FE7
:101710009A1FA11D680F791F8A1F911DA11D6A0FB5
:10172000711D811D911DA11D20D009F468943F9168
:101730002AE0269F11243019305D3193DEF6CF0167
:101740000895462F4770405D4193B3E00FD0C9F72D
:10175000F6CF462F4F70405D4A3318F0495D31FD9A
:101760004052419302D0A9F7EACFB4E0A6959795ED
:10177000879577956795BA95C9F7009761057105C3
:1017800008959B01AC010A2E06945795479537950D
:101790002795BA95C9F7620F731F841F951FA01D67
:0617A0000895F894FFCF4C
:1017A6000000000200000000230200000000256483
:1017B6000A004C534D3944533120697320776F72B8
:1017C6006B696E67212121212121004C534D39443B
:1017D6005331206973206E6F7420776F726B696E58
:1017E60067203A2800526F6C6C3A20252E31660A23
:0217F6000000F1
:00000001FF
