:100000000C94B5000C94D2000C94D2000C94D20045
:100010000C94D2000C94D2000C94D2000C94D20018
:100020000C94D2000C94D2000C94D2000C941003C7
:100030000C94D2000C94D2000C94D2000C94D200F8
:100040000C94D2000C94D2000C94D2000C94D200E8
:100050000C94D2000C94D2000C94D2000C94D200D8
:100060000C94D2000C94D2006E616E00696E660032
:1000700000407A10F35A00A0724E18090010A5D45F
:10008000E80000E87648170000E40B54020000CABC
:100090009A3B000000E1F505000080969800000002
:1000A00040420F000000A086010000001027000061
:1000B0000000E803000000006400000000000A00E7
:1000C000000000000100000000002C76D888DC67EA
:1000D0004F0823DFC1DFAE59E1B1B796E5E3E45342
:1000E000C63AE651997696E8E6C28426EB898C9B5F
:1000F00062ED407C6FFCEFBC9C9F40F2BAA56FA5FF
:10010000F490055A2AF75C936B6CF9676DC11BFC80
:10011000E0E40D47FEF520E6B500D0ED902E03009B
:10012000943577050080841E080000204E0A0000E8
:1001300000C80C333333330F986E12831141EF8DA7
:100140002114893BE65516CFFEE6DB18D1844B38E7
:100150001BF77C1D901DA4BBE424203284725E2218
:100160008100C9F124ECA1E53D2711241FBECFEF8A
:10017000D8E0DEBFCDBF11E0A0E0B1E0E6EDF5E1F3
:1001800002C005900D92A836B107D9F722E0A8E683
:10019000B1E001C01D92AB34B207E1F70E94400705
:1001A0000C94E90A0C9400004F925F926F927F9238
:1001B000AF92BF92CF92DF92EF92FF920F931F9375
:1001C000CF93DF93CDB7DEB729013A019B01AC0194
:1001D000241935094609570989899A89AB89BC8947
:1001E000BC01CD016A197B098C099D090E949D07FC
:1001F000A801970124193509460957090E94AD073E
:10020000A20EB31EB501BB0C880B990BDF91CF91E9
:100210001F910F91FF90EF90DF90CF90BF90AF9024
:100220007F906F905F904F900895E0E8F0E08081BC
:10023000826A8083E1E8F0E080818A6180831092A5
:1002400085001092840080E49CE99093870080935D
:1002500086008AEE9BE090938900809388009093BB
:100260008B0080938A0008959C01263A8FEF38070F
:1002700019F486E495E005C02A35310561F48EE86D
:1002800092E190938900809388008FE39CE9019725
:10029000F1F700C00000C901330FAA0BBB0B9C0192
:1002A000AD01265A3F4F4F4F5F4FA8E4BDE00E947B
:1002B000CF0724EB30E040E050E00E94AD072A5B1E
:1002C0003A4F30938900209388008FE39CE901978F
:1002D000F1F700C0000008959C01263A8FEF38071F
:1002E00019F486E495E005C02A35310561F48EE8FD
:1002F00092E190938B0080938A008FE39CE90197B1
:10030000F1F700C00000C901330FAA0BBB0B9C0121
:10031000AD01265A3F4F4F4F5F4FA8E4BDE00E940A
:10032000CF0724EB30E040E050E00E94AD072A5BAD
:100330003A4F30938B0020938A008FE39CE901971A
:10034000F1F700C00000089594B121E030E001C051
:10035000220F8A95EAF7292B24B908950E947A037F
:100360002A9882E20E94840380EA0E9484032A9AE7
:100370002FEF83ED90E3215080409040E1F700C0E3
:100380000000299880E10E94840381E40E94840394
:10039000299A2FEF83ED90E3215080409040E1F7C0
:1003A00000C00000299883EA0E94840380E20E9432
:1003B0008403299A2FEF83ED90E3215080409040F1
:1003C000E1F700C00000299881E20E94840380E8E0
:1003D0000E948403299A2FEF83ED90E321508040FF
:1003E0009040E1F700C0000029988FE80E94840344
:1003F0008FEF0E94840380933B02299A2FEF83EDB5
:1004000090E3215080409040E1F700C000002A981E
:100410008FE80E9484038FEF0E94840380939101F0
:100420002A9A2FEF83ED90E3215080409040E1F72E
:1004300000C0000080913B02883639F48091910120
:100440008D3319F489E291E002C083E491E00C94C9
:100450005B0ACF93DF93EC01299889EA0E94840319
:100460008FEF0E94840380939F0188EC0E94840395
:100470008FEF0E94840380936801299A29988BEA60
:100480000E9484038FEF0E948403809381018AEA93
:100490000E9484038FEF0E94840380938001299A35
:1004A00029988DEA0E9484038FEF0E948403809331
:1004B00040028CEA0E9484038FEF0E9484038093A1
:1004C0009001299A80919F0190E0982F8827209190
:1004D0006801822B90937F0180937E01809181013E
:1004E00090E0982F882720918001822B90936C01B7
:1004F00080936B018091400290E0982F8827209193
:100500009001822B909316028093150260917E01D8
:1005100070917F01072E000C880B990B0E94220816
:1005200023E23BED49E75DE30E945D082FE632E1FF
:1005300043E85AE30E945D0860931102709312022F
:10054000809313029093140260916B0170916C017F
:10055000072E000C880B990B0E94220823E23BED2A
:1005600049E75DE30E945D082FE632E143E85AE384
:100570000E945D0860931F02709320028093210205
:10058000909322026091150270911602072E000CC2
:10059000880B990B0E94220823E23BED49E75DE3BB
:1005A0000E945D082FE632E143E85AE30E945D08AD
:1005B0006093230270932402809325029093260275
:1005C0008091110290911202A0911302B091140235
:1005D000E2E8F1E080839183A283B38380911F02DC
:1005E00090912002A0912102B091220284839583F0
:1005F000A683B7838091230290912402A0912502C3
:10060000B091260280879187A287B3878CE0DE01B4
:1006100001900D928A95E1F7CE01DF91CF91089577
:100620001F920F920FB60F9211248F939F93AF9347
:10063000BF938091410290914202A0914302B091F8
:1006400044020196A11DB11D809341029093420284
:10065000A0934302B0934402BF91AF919F918F91B9
:100660000F900FBE0F901F90189520E43FE140E0DF
:1006700050E00E94AD07E1E8F0E080818A6080836D
:10068000EFE6F0E0808182608083BB27A52F942F66
:10069000832F80938900209388000895F8946091B7
:1006A00041027091420280914302909144027894F9
:1006B00008959093C5008093C40088E18093C100A1
:1006C00086E08093C2000895CF93C82F8A3019F432
:1006D0008DE00E9464038091C00085FFFCCFC09331
:1006E000C600CF9108958091C00087FFFCCF809114
:1006F000C600089584B18E6284B9249885B186605D
:1007000085B98CE58CBD08958EBD0DB407FEFDCF77
:100710008EB580933F028EB508959EBD0DB407FE41
:10072000FDCF8EBD0DB407FEFDCF8EB590E00895D0
:10073000389A0895409A2FEF89E698E12150804039
:100740009040E1F700C0000040982FEF84E39CE068
:10075000215080409040E1F700C000000895539A76
:1007600086E990E05B9AEFE9FFE03197F1F700C08E
:1007700000005B98EFE9FFE03197F1F700C000005F
:10078000019781F70895A0E1B0E0E9ECF3E00C9463
:10079000DA077C011B016A01FC0117821682838142
:1007A00081FF44C39E012F5F3F4F3901F7019381C1
:1007B000F10193FD859193FF81911F01882309F435
:1007C00031C3853239F493FD859193FF81911F01E7
:1007D000853239F4B70190E00E94090A560165019B
:1007E000E5CF10E0512C912CFFE1F915D8F08B32B8
:1007F00079F038F4803279F08332A1F4F92DF06188
:100800002EC08D3261F0803369F4292D21602DC016
:10081000392D3260932E892D8460982E2AC0E92DBF
:10082000E86015C097FC2DC020ED280F2A3088F411
:1008300096FE06C03AE0139F200D1124122F19C016
:100840008AE0589E200D1124522EE92DE0629E2E42
:1008500010C08E3231F496FCE5C2F92DF0649F2E63
:1008600008C08C3621F4292D2068922E02C08836CB
:1008700041F4F10193FD859193FF81911F01811155
:10088000B3CF9BEB980F933020F4992D9061805E4D
:1008900007C09BE9980F933008F066C1992D9F7EA1
:1008A00096FF16E09F73992E853619F49064992E61
:1008B00008C0863621F4392F3068932E02C01111FA
:1008C000115097FE07C01C3350F444244394410E4A
:1008D00027E00BC0183038F027E017E005C027E00C
:1008E0009CE3492E02C0212F412C560184E0A80E22
:1008F000B11CF6016081718182819381042DA30175
:100900000E941B096C01F981FC87F0FF02C0F3FF14
:1009100006C091FC06C092FE06C000E205C00DE2D2
:1009200003C00BE201C000E08C858C7019F001114E
:100930005AC29BC297FE10C04C0CFC85F4FF04C049
:100940008A81813309F44A94141474F528E024153B
:1009500078F588E0482E2CC096FC2AC0812F90E0C4
:100960008C159D059CF03CEFC3163FEFD30674F049
:10097000892D8068982E0AC0E2E0F0E0EC0FFD1FA0
:10098000E10FF11D8081803319F411501111F4CF62
:1009900097FE0EC044244394410E812F90E0C81668
:1009A000D9062CF41C1904C04424439401C010E05F
:1009B00097FE06C01C141D0434F4C601019605C040
:1009C00085E090E002C081E090E0011101961123E2
:1009D00031F0212F30E02F5F3F4F820F931F252DE5
:1009E00030E08217930714F4581A01C0512C892D56
:1009F000897049F4552039F0B70180E290E00E94F7
:100A0000090A5A94F7CF002329F0B701802F90E00C
:100A10000E94090A93FC09C0552039F0B70180E310
:100A200090E00E94090A5A94F7CF97FE4CC0460105
:100A3000D7FE02C0812C912CC60188199909F301B7
:100A4000E80FF91FFE87ED87960124193109388BCD
:100A50002F87012F10E01195019511093FEF8316A3
:100A6000930629F4B7018EE290E00E94090AC814A7
:100A7000D9044CF08F8598898815990524F4ED8563
:100A8000FE85818101C080E3F1E08F1A91082D85F8
:100A90003E852F5F3F4F3E872D87801691062CF0B5
:100AA000B70190E00E94090AD9CFC814D90441F4D3
:100AB0009A81963320F4953319F43C8534FF81E311
:100AC000B70190E04EC08A81813319F09C859F7EEA
:100AD0009C87B70190E00E94090A111105C094FC9F
:100AE00018C085E690E017C0B7018EE290E00E9442
:100AF000090A1E5F82E001E0080FF301E80FF11D13
:100B00008081B70190E00E94090A802F0113F3CF82
:100B1000E6CF85E490E0B7010E94090AD7FC06C041
:100B2000C114D10441F4EC85E4FF05C0D194C19413
:100B3000D1088DE201C08BE2B70190E00E94090A62
:100B400080E32AE0C216D1042CF08F5FFAE0CF1ABE
:100B5000D108F7CFB70190E00E94090AB701C6019A
:100B6000C0960E94090A54C1833631F0833779F068
:100B7000833509F056C020C0560132E0A30EB11CE7
:100B8000F6018081898301E010E0630112C0560103
:100B9000F2E0AF0EB11CF601C080D18096FE03C01A
:100BA000612F70E002C06FEF7FEFC6010E94FE0967
:100BB0008C01F92DFF7714C0560122E0A20EB11C62
:100BC000F601C080D18096FE03C0612F70E002C0A4
:100BD0006FEF7FEFC6010E94F3098C01F92DF068D9
:100BE0009F2EF3FD1AC0852D90E008171907A8F471
:100BF000B70180E290E00E94090A5A94F4CFF6010E
:100C000097FC859197FE81916F01B70190E00E945A
:100C1000090A51105A94015011090115110579F76B
:100C2000F7C0843611F0893661F5560197FE09C088
:100C300024E0A20EB11CF601608171818281938152
:100C40000AC0F2E0AF0EB11CF60160817181072E7F
:100C5000000C880B990BF92DFF769F2E97FF09C08A
:100C600090958095709561957F4F8F4F9F4FF0685D
:100C70009F2E2AE030E0A3010E948B0AC82EC618DE
:100C80003FC0092D853721F40F7E2AE030E01DC0DA
:100C9000097F8F3691F018F4883559F0C3C080373A
:100CA00019F0883711F0BEC0006104FF09C004606C
:100CB00007C094FE08C0066006C028E030E005C00A
:100CC00020E130E002C020E132E0560107FF09C018
:100CD00084E0A80EB11CF60160817181828193814C
:100CE00008C0F2E0AF0EB11CF6016081718180E0B6
:100CF00090E0A3010E948B0AC82EC6180F77902E91
:100D000096FE0BC0092D0E7FC11650F494FE0AC04A
:100D100092FC08C0092D0E7E05C0DC2C092D03C0F5
:100D2000DC2C01C0D12E04FF0DC0FE01EC0DF11D25
:100D30008081803311F4097E09C002FF06C0D3947C
:100D4000D39404C0802F867809F0D39403FD11C09A
:100D500000FF06C01C2DD51480F4150D1D190DC003
:100D6000D51458F4B70180E290E00E94090AD394A8
:100D7000F7CFD51410F45D1801C0512C04FF10C03A
:100D8000B70180E390E00E94090A02FF17C001FD4D
:100D900003C088E790E002C088E590E0B7010CC08E
:100DA000802F867859F001FF02C08BE201C080E2FB
:100DB00007FD8DE2B70190E00E94090AC11638F4E0
:100DC000B70180E390E00E94090A1150F7CFCA945E
:100DD000F301EC0DF11D8081B70190E00E94090A3A
:100DE000C110F5CF15C0F4E0F51560F584E0581A90
:100DF00093FE1FC0011127C02C8523FF2AC008E6DF
:100E000010E0392D3071932EF8018491811124C0A6
:100E1000552009F4E4CCB70180E290E00E94090A71
:100E20005A94F6CFF7018681978126C08FEF9FEF06
:100E300023C0B70180E290E00E94090A5A94511041
:100E4000F8CFD8CF512CB701802F90E00E94090A2B
:100E5000D3CF0CE610E0D5CF91108052B70190E0CF
:100E60000E94090A0F5F1F4FCFCF23E0251510F412
:100E700083E0BDCF512CC0CF6096E2E10C94F60721
:100E8000CF93DF93CDB7DEB72C970FB6F894DEBFC4
:100E90000FBECDBF87E690E00E94590380E091E04D
:100EA00090934802809347020E94AE0178940EE02E
:100EB00011E0CE0101960E9429028CE0FE013196DC
:100EC000A9E2B2E001900D928A95E1F7C09031025B
:100ED000D0903202E0903302F090340240912D0223
:100EE00050912E0260912F02709130028091290260
:100EF00090912A02A0912B02B0912C02FF92EF92C6
:100F0000DF92CF927F936F935F934F93BF93AF9393
:100F10009F938F931F930F930E94450A2FEF82E5B3
:100F200097E0215080409040E1F700C000000FB6EC
:100F3000F894DEBF0FBECDBFBCCFDB018F939F9374
:100F40000E94CF07BF91AF91A29F800D911DA39FDB
:100F5000900DB29F900D11240895A1E21A2EAA1BA4
:100F6000BB1BFD010DC0AA1FBB1FEE1FFF1FA21759
:100F7000B307E407F50720F0A21BB30BE40BF50B56
:100F8000661F771F881F991F1A9469F760957095DF
:100F9000809590959B01AC01BD01CF0108950E9401
:100FA0001108A59F900DB49F900DA49F800D911DD9
:100FB000112408952F923F924F925F926F927F92E9
:100FC0008F929F92AF92BF92CF92DF92EF92FF9259
:100FD0000F931F93CF93DF93CDB7DEB7CA1BDB0B05
:100FE0000FB6F894DEBF0FBECDBF09942A883988AA
:100FF00048885F846E847D848C849B84AA84B984B1
:10100000C884DF80EE80FD800C811B81AA81B981BC
:10101000CE0FD11D0FB6F894DEBF0FBECDBFED01D0
:101020000895A29FB001B39FC001A39F700D811DC1
:101030001124911DB29F700D811D1124911D0895E1
:10104000E89409C097FB3EF4909580957095619562
:101050007F4F8F4F9F4F9923A9F0F92F96E9BB2718
:101060009395F695879577956795B795F111F8CF94
:10107000FAF4BB0F11F460FF1BC06F5F7F4F8F4FFF
:101080009F4F16C0882311F096E911C0772321F0F5
:101090009EE8872F762F05C0662371F096E8862F8D
:1010A00070E060E02AF09A95660F771F881FDAF7E4
:1010B000880F9695879597F908950E9470080C946B
:1010C000E1080E94D30838F00E94DA0820F0952346
:1010D00011F00C94CA080C94D00811240C94150932
:1010E0000E94F20870F3959FC1F3950F50E0551FD1
:1010F000629FF001729FBB27F00DB11D639FAA276D
:10110000F00DB11DAA1F649F6627B00DA11D661FBB
:10111000829F2227B00DA11D621F739FB00DA11DDC
:10112000621F839FA00D611D221F749F3327A00D96
:10113000611D231F849F600D211D822F762F6A2F32
:1011400011249F5750409AF0F1F088234AF0EE0F97
:10115000FF1FBB1F661F771F881F91505040A9F7C4
:101160009E3F510580F00C94CA080C9415095F3F0E
:10117000E4F3983ED4F3869577956795B795F79500
:10118000E7959F5FC1F7FE2B880F911D9695879578
:1011900097F9089597F99F6780E870E060E00895F7
:1011A0009FEF80EC089500240A941616170618067F
:1011B0000906089500240A9412161306140605065B
:1011C0000895092E0394000C11F4882352F0BB0FEC
:1011D00040F4BF2B11F460FF04C06F5F7F4F8F4F4F
:1011E0009F4F089557FD9058440F551F59F05F3F8A
:1011F00071F04795880F97FB991F61F09F3F79F039
:1012000087950895121613061406551FF2CF4695BA
:10121000F1DF08C0161617061806991FF1CF86953C
:101220007105610508940895E894BB276627772720
:10123000CB0197F90895283008F027E03327DA0129
:10124000990F311D87FD916000966105710539F494
:1012500032602E5F3D9330E32A95E1F708959F3F7A
:1012600030F080387105610509F03C5F3C5F3D93CB
:10127000913008F08068911DDF93CF931F930F93F7
:10128000FF92EF92192F987F9695E92F9695969554
:10129000E90FFF27E653FF4F99273327EE24FF245A
:1012A000A701E70105900894079428F4360FE71E7C
:1012B000F81E491F511D660F771F881F991F06943E
:1012C000A1F70590079428F4E70EF81E491F561F52
:1012D000C11D770F881F991F661F0694A1F70590FF
:1012E000079428F4F80E491F561FC71FD11D880FF9
:1012F000991F661F771F0694A1F70590079420F4A5
:10130000490F561FC71FD81F990F661F771F881FC9
:101310000694A9F784911095177041F0D695C7955A
:1013200057954795F794E7941A95C1F7E0E7F0E0F1
:1013300068941590159135916591959105907FE28E
:101340007395E118F10A430B560BC90BD009C0F78E
:10135000E10CF11E431F561FC91FD01D7EF47033D0
:1013600011F48A95E6CFE894015030F0080F0AF4A2
:101370000027021708F4202F2395022F7A3328F034
:1013800079E37D932A95E9F710C07D932A9589F634
:10139000069497956795379517951794E118F10A74
:1013A000430B560BC90BD00998F023957E9173958A
:1013B0007A3308F070E37C932013B8F77E91706164
:1013C0007D9330F0839571E37D9370E32A95E1F787
:1013D0001124EF90FF900F911F91CF91DF919927EA
:1013E00087FD90950895FC010590615070400110B3
:1013F000D8F7809590958E0F9F1F0895FC0161503E
:10140000704001900110D8F7809590958E0F9F1F26
:1014100008950F931F93CF93DF93FB01238121FD49
:1014200003C08FEF9FEF2CC022FF16C0468157816B
:10143000248135814217530744F4A081B1819D0175
:101440002F5F3F4F318320838C93268137812F5F1D
:101450003F4F3783268314C08B01EC01FB010084CE
:10146000F185E02D0995892BE1F6D80116968D912D
:101470009C911797019617969C938E931697CE0181
:10148000DF91CF911F910F910895A0E0B0E0EBE4C0
:10149000FAE00C94EA07AE014B5F5F4FFA016191ED
:1014A0007191AF0180914702909148020E94C3035D
:1014B000E2E00C9406080F931F93CF93DF93E09123
:1014C0004702F0914802238121FF1BC08C01D0E02C
:1014D000C0E0F80181918F0160914702709148024C
:1014E000DB011896ED91FC911997882331F009954D
:1014F000892B79F3DFEFCFEFECCF8AE00995892BC9
:1015000019F08FEF9FEF02C08D2F9C2FDF91CF91AD
:101510001F910F910895FA01AA27283051F1203127
:1015200081F1E8946F936E7F6E5F7F4F8F4F9F4F77
:10153000AF4FB1E03ED0B4E03CD0670F781F891FB9
:101540009A1FA11D680F791F8A1F911DA11D6A0F87
:10155000711D811D911DA11D20D009F468943F913A
:101560002AE0269F11243019305D3193DEF6CF0139
:101570000895462F4770405D4193B3E00FD0C9F7FF
:10158000F6CF462F4F70405D4A3318F0495D31FD6C
:101590004052419302D0A9F7EACFB4E0A6959795BF
:1015A000879577956795BA95C9F700976105710595
:1015B00008959B01AC010A2E0694579547953795DF
:1015C0002795BA95C9F7620F731F841F951FA01D39
:0615D0000895F894FFCF1E
:1015D6000000000200000000640300000000615FDC
:1015E600783A2025662C20615F793A2025662C20E2
:1015F600615F7A3A2025660A004C534D39445331CF
:1016060020574F524B494E472050524F5045524C4F
:10161600592100536F6D657468696E672069732080
:1016260077726F6E672C20636865636B20776972CB
:08163600696E67203A280000EC
:00000001FF
